{
  "_format": "hh-sol-artifact-1",
  "contractName": "MaliciousReentrancy",
  "sourceName": "contracts/MaliciousReentrancy.sol",
  "abi": [
    {
      "inputs": [
        {
          "internalType": "address",
          "name": "_vault",
          "type": "address"
        }
      ],
      "stateMutability": "nonpayable",
      "type": "constructor"
    },
    {
      "inputs": [],
      "name": "attack",
      "outputs": [],
      "stateMutability": "payable",
      "type": "function"
    },
    {
      "inputs": [],
      "name": "attackCount",
      "outputs": [
        {
          "internalType": "uint256",
          "name": "",
          "type": "uint256"
        }
      ],
      "stateMutability": "view",
      "type": "function"
    },
    {
      "inputs": [],
      "name": "getBalance",
      "outputs": [
        {
          "internalType": "uint256",
          "name": "",
          "type": "uint256"
        }
      ],
      "stateMutability": "view",
      "type": "function"
    },
    {
      "inputs": [],
      "name": "maxAttacks",
      "outputs": [
        {
          "internalType": "uint256",
          "name": "",
          "type": "uint256"
        }
      ],
      "stateMutability": "view",
      "type": "function"
    },
    {
      "inputs": [],
      "name": "owner",
      "outputs": [
        {
          "internalType": "address",
          "name": "",
          "type": "address"
        }
      ],
      "stateMutability": "view",
      "type": "function"
    },
    {
      "inputs": [],
      "name": "vault",
      "outputs": [
        {
          "internalType": "contract IYieldFarmVault",
          "name": "",
          "type": "address"
        }
      ],
      "stateMutability": "view",
      "type": "function"
    },
    {
      "inputs": [],
      "name": "withdraw",
      "outputs": [],
      "stateMutability": "nonpayable",
      "type": "function"
    },
    {
      "stateMutability": "payable",
      "type": "receive"
    }
  ],
  "bytecode": "0x60a0604052600360025534801561001557600080fd5b50604051610a66380380610a6683398181016040528101906100379190610114565b8073ffffffffffffffffffffffffffffffffffffffff1660808173ffffffffffffffffffffffffffffffffffffffff1681525050336000806101000a81548173ffffffffffffffffffffffffffffffffffffffff021916908373ffffffffffffffffffffffffffffffffffffffff16021790555050610141565b600080fd5b600073ffffffffffffffffffffffffffffffffffffffff82169050919050565b60006100e1826100b6565b9050919050565b6100f1816100d6565b81146100fc57600080fd5b50565b60008151905061010e816100e8565b92915050565b60006020828403121561012a576101296100b1565b5b6000610138848285016100ff565b91505092915050565b6080516108ef61017760003960008181608b01528181610144015281816104be0152818161054701526105cf01526108ef6000f3fe6080604052600436106100745760003560e01c80638da5cb5b1161004e5780638da5cb5b146102375780639e5faafc14610262578063a37573d61461026c578063fbfa77cf14610297576101c5565b806312065fe0146101ca5780633ccfd60b146101f5578063407c28211461020c576101c5565b366101c557600254600154108015610125575060007f000000000000000000000000000000000000000000000000000000000000000073ffffffffffffffffffffffffffffffffffffffff16634e7c57a6306040518263ffffffff1660e01b81526004016100e29190610632565b602060405180830381865afa1580156100ff573d6000803e3d6000fd5b505050506040513d601f19601f820116820180604052508101906101239190610688565b115b156101c3576001600081548092919061013d906106e4565b91905055507f000000000000000000000000000000000000000000000000000000000000000073ffffffffffffffffffffffffffffffffffffffff1663372500ab6040518163ffffffff1660e01b8152600401600060405180830381600087803b1580156101aa57600080fd5b505af11580156101be573d6000803e3d6000fd5b505050505b005b600080fd5b3480156101d657600080fd5b506101df6102c2565b6040516101ec919061073b565b60405180910390f35b34801561020157600080fd5b5061020a6102ca565b005b34801561021857600080fd5b506102216103c1565b60405161022e919061073b565b60405180910390f35b34801561024357600080fd5b5061024c6103c7565b6040516102599190610632565b60405180910390f35b61026a6103eb565b005b34801561027857600080fd5b506102816105c7565b60405161028e919061073b565b60405180910390f35b3480156102a357600080fd5b506102ac6105cd565b6040516102b991906107b5565b60405180910390f35b600047905090565b60008054906101000a900473ffffffffffffffffffffffffffffffffffffffff1673ffffffffffffffffffffffffffffffffffffffff163373ffffffffffffffffffffffffffffffffffffffff1614610358576040517f08c379a000000000000000000000000000000000000000000000000000000000815260040161034f9061082d565b60405180910390fd5b60008054906101000a900473ffffffffffffffffffffffffffffffffffffffff1673ffffffffffffffffffffffffffffffffffffffff166108fc479081150290604051600060405180830381858888f193505050501580156103be573d6000803e3d6000fd5b50565b60015481565b60008054906101000a900473ffffffffffffffffffffffffffffffffffffffff1681565b60008054906101000a900473ffffffffffffffffffffffffffffffffffffffff1673ffffffffffffffffffffffffffffffffffffffff163373ffffffffffffffffffffffffffffffffffffffff1614610479576040517f08c379a00000000000000000000000000000000000000000000000000000000081526004016104709061082d565b60405180910390fd5b600034116104bc576040517f08c379a00000000000000000000000000000000000000000000000000000000081526004016104b390610899565b60405180910390fd5b7f000000000000000000000000000000000000000000000000000000000000000073ffffffffffffffffffffffffffffffffffffffff16633a4b66f1346040518263ffffffff1660e01b81526004016000604051808303818588803b15801561052457600080fd5b505af1158015610538573d6000803e3d6000fd5b505050505060006001819055507f000000000000000000000000000000000000000000000000000000000000000073ffffffffffffffffffffffffffffffffffffffff1663372500ab6040518163ffffffff1660e01b8152600401600060405180830381600087803b1580156105ad57600080fd5b505af11580156105c1573d6000803e3d6000fd5b50505050565b60025481565b7f000000000000000000000000000000000000000000000000000000000000000081565b600073ffffffffffffffffffffffffffffffffffffffff82169050919050565b600061061c826105f1565b9050919050565b61062c81610611565b82525050565b60006020820190506106476000830184610623565b92915050565b600080fd5b6000819050919050565b61066581610652565b811461067057600080fd5b50565b6000815190506106828161065c565b92915050565b60006020828403121561069e5761069d61064d565b5b60006106ac84828501610673565b91505092915050565b7f4e487b7100000000000000000000000000000000000000000000000000000000600052601160045260246000fd5b60006106ef82610652565b91507fffffffffffffffffffffffffffffffffffffffffffffffffffffffffffffffff8203610721576107206106b5565b5b600182019050919050565b61073581610652565b82525050565b6000602082019050610750600083018461072c565b92915050565b6000819050919050565b600061077b610776610771846105f1565b610756565b6105f1565b9050919050565b600061078d82610760565b9050919050565b600061079f82610782565b9050919050565b6107af81610794565b82525050565b60006020820190506107ca60008301846107a6565b92915050565b600082825260208201905092915050565b7f4f6e6c79206f776e657200000000000000000000000000000000000000000000600082015250565b6000610817600a836107d0565b9150610822826107e1565b602082019050919050565b600060208201905081810360008301526108468161080a565b9050919050565b7f4e6565642045544820746f2061747461636b0000000000000000000000000000600082015250565b60006108836012836107d0565b915061088e8261084d565b602082019050919050565b600060208201905081810360008301526108b281610876565b905091905056fea264697066735822122026dae1d74f7a4e33a09091b54f0816481cfb984a3e4fa022139907240839eee064736f6c634300081c0033",
  "linkReferences": {},
  "deployedLinkReferences": {}
}