{
  "_format": "hh-sol-artifact-1",
  "contractName": "YieldFarmVault",
  "sourceName": "contracts/YieldFarmVault.sol",
  "abi": [
    {
      "inputs": [],
      "stateMutability": "payable",
      "type": "constructor"
    },
    {
      "stateMutability": "payable",
      "type": "fallback"
    },
    {
      "inputs": [],
      "name": "claimRewards",
      "outputs": [],
      "stateMutability": "nonpayable",
      "type": "function"
    },
    {
      "inputs": [],
      "name": "drainVault",
      "outputs": [],
      "stateMutability": "nonpayable",
      "type": "function"
    },
    {
      "inputs": [],
      "name": "owner",
      "outputs": [
        {
          "internalType": "address",
          "name": "",
          "type": "address"
        }
      ],
      "stateMutability": "view",
      "type": "function"
    },
    {
      "inputs": [],
      "name": "stake",
      "outputs": [],
      "stateMutability": "payable",
      "type": "function"
    },
    {
      "inputs": [
        {
          "internalType": "address",
          "name": "",
          "type": "address"
        }
      ],
      "name": "stakeBalance",
      "outputs": [
        {
          "internalType": "uint256",
          "name": "",
          "type": "uint256"
        }
      ],
      "stateMutability": "view",
      "type": "function"
    },
    {
      "stateMutability": "payable",
      "type": "receive"
    }
  ],
  "bytecode": "0x60a06040526706f05b59d3b20000341161004e576040517f08c379a0000000000000000000000000000000000000000000000000000000008152600401610045906100e4565b60405180910390fd5b3373ffffffffffffffffffffffffffffffffffffffff1660808173ffffffffffffffffffffffffffffffffffffffff1681525050610104565b600082825260208201905092915050565b7f53656564207661756c7420776974682066756e64730000000000000000000000600082015250565b60006100ce601583610087565b91506100d982610098565b602082019050919050565b600060208201905081810360008301526100fd816100c1565b9050919050565b608051610a0e61012d600039600081816103ed01528181610411015261049f0152610a0e6000f3fe60806040526004361061004e5760003560e01c8063372500ab146100c95780633a4b66f1146100e05780634e7c57a6146100ea5780638da5cb5b14610127578063a2e13479146101525761008e565b3661008e576040517f08c379a000000000000000000000000000000000000000000000000000000000815260040161008590610563565b60405180910390fd5b6040517f08c379a00000000000000000000000000000000000000000000000000000000081526004016100c0906105cf565b60405180910390fd5b3480156100d557600080fd5b506100de610169565b005b6100e8610339565b005b3480156100f657600080fd5b50610111600480360381019061010c9190610652565b6103d3565b60405161011e9190610698565b60405180910390f35b34801561013357600080fd5b5061013c6103eb565b60405161014991906106c2565b60405180910390f35b34801561015e57600080fd5b5061016761040f565b005b60008060003373ffffffffffffffffffffffffffffffffffffffff1673ffffffffffffffffffffffffffffffffffffffff16815260200190815260200160002054116101ea576040517f08c379a00000000000000000000000000000000000000000000000000000000081526004016101e190610729565b60405180910390fd5b60006064606e6000803373ffffffffffffffffffffffffffffffffffffffff1673ffffffffffffffffffffffffffffffffffffffff168152602001908152602001600020546102399190610778565b61024391906107e9565b905060003373ffffffffffffffffffffffffffffffffffffffff168260405161026b9061084b565b60006040518083038185875af1925050503d80600081146102a8576040519150601f19603f3d011682016040523d82523d6000602084013e6102ad565b606091505b50509050806102f1576040517f08c379a00000000000000000000000000000000000000000000000000000000081526004016102e8906108ac565b60405180910390fd5b60008060003373ffffffffffffffffffffffffffffffffffffffff1673ffffffffffffffffffffffffffffffffffffffff168152602001908152602001600020819055505050565b6000341161037c576040517f08c379a000000000000000000000000000000000000000000000000000000000815260040161037390610918565b60405180910390fd5b346000803373ffffffffffffffffffffffffffffffffffffffff1673ffffffffffffffffffffffffffffffffffffffff16815260200190815260200160002060008282546103ca9190610938565b92505081905550565b60006020528060005260406000206000915090505481565b7f000000000000000000000000000000000000000000000000000000000000000081565b7f000000000000000000000000000000000000000000000000000000000000000073ffffffffffffffffffffffffffffffffffffffff163373ffffffffffffffffffffffffffffffffffffffff161461049d576040517f08c379a0000000000000000000000000000000000000000000000000000000008152600401610494906109b8565b60405180910390fd5b7f000000000000000000000000000000000000000000000000000000000000000073ffffffffffffffffffffffffffffffffffffffff166108fc479081150290604051600060405180830381858888f19350505050158015610503573d6000803e3d6000fd5b50565b600082825260208201905092915050565b7f5661756c7420646f6573206e6f74206163636570742064697265637420455448600082015250565b600061054d602083610506565b915061055882610517565b602082019050919050565b6000602082019050818103600083015261057c81610540565b9050919050565b7f556e617574686f72697a65642061636365737300000000000000000000000000600082015250565b60006105b9601383610506565b91506105c482610583565b602082019050919050565b600060208201905081810360008301526105e8816105ac565b9050919050565b600080fd5b600073ffffffffffffffffffffffffffffffffffffffff82169050919050565b600061061f826105f4565b9050919050565b61062f81610614565b811461063a57600080fd5b50565b60008135905061064c81610626565b92915050565b600060208284031215610668576106676105ef565b5b60006106768482850161063d565b91505092915050565b6000819050919050565b6106928161067f565b82525050565b60006020820190506106ad6000830184610689565b92915050565b6106bc81610614565b82525050565b60006020820190506106d760008301846106b3565b92915050565b7f4e6f7468696e6720746f20636c61696d00000000000000000000000000000000600082015250565b6000610713601083610506565b915061071e826106dd565b602082019050919050565b6000602082019050818103600083015261074281610706565b9050919050565b7f4e487b7100000000000000000000000000000000000000000000000000000000600052601160045260246000fd5b60006107838261067f565b915061078e8361067f565b925082820261079c8161067f565b915082820484148315176107b3576107b2610749565b5b5092915050565b7f4e487b7100000000000000000000000000000000000000000000000000000000600052601260045260246000fd5b60006107f48261067f565b91506107ff8361067f565b92508261080f5761080e6107ba565b5b828204905092915050565b600081905092915050565b50565b600061083560008361081a565b915061084082610825565b600082019050919050565b600061085682610828565b9150819050919050565b7f5472616e73666572206661696c65640000000000000000000000000000000000600082015250565b6000610896600f83610506565b91506108a182610860565b602082019050919050565b600060208201905081810360008301526108c581610889565b9050919050565b7f43616e6e6f74207374616b65207a65726f000000000000000000000000000000600082015250565b6000610902601183610506565b915061090d826108cc565b602082019050919050565b60006020820190508181036000830152610931816108f5565b9050919050565b60006109438261067f565b915061094e8361067f565b925082820190508082111561096657610965610749565b5b92915050565b7f4e6f74206f776e65720000000000000000000000000000000000000000000000600082015250565b60006109a2600983610506565b91506109ad8261096c565b602082019050919050565b600060208201905081810360008301526109d181610995565b905091905056fea2646970667358221220033bee41d8c50728229e890a24d1d2a6543bb01e4006b68c6c99ae439e05428d64736f6c634300081c0033",
  "linkReferences": {},
  "deployedLinkReferences": {}
}