{
  "_format": "hh-sol-artifact-1",
  "contractName": "AuditRegistry",
  "sourceName": "contracts/AuditRegistry.sol",
  "abi": [
    {
      "inputs": [
        {
          "internalType": "address",
          "name": "initialOwner",
          "type": "address"
        }
      ],
      "stateMutability": "nonpayable",
      "type": "constructor"
    },
    {
      "inputs": [
        {
          "internalType": "address",
          "name": "owner",
          "type": "address"
        }
      ],
      "name": "OwnableInvalidOwner",
      "type": "error"
    },
    {
      "inputs": [
        {
          "internalType": "address",
          "name": "account",
          "type": "address"
        }
      ],
      "name": "OwnableUnauthorizedAccount",
      "type": "error"
    },
    {
      "anonymous": false,
      "inputs": [
        {
          "indexed": true,
          "internalType": "address",
          "name": "previousOwner",
          "type": "address"
        },
        {
          "indexed": true,
          "internalType": "address",
          "name": "newOwner",
          "type": "address"
        }
      ],
      "name": "OwnershipTransferred",
      "type": "event"
    },
    {
      "anonymous": false,
      "inputs": [
        {
          "indexed": true,
          "internalType": "uint256",
          "name": "reportId",
          "type": "uint256"
        },
        {
          "indexed": true,
          "internalType": "address",
          "name": "contractAudited",
          "type": "address"
        },
        {
          "indexed": true,
          "internalType": "address",
          "name": "auditor",
          "type": "address"
        },
        {
          "indexed": false,
          "internalType": "enum AuditRegistry.ThreatLevel",
          "name": "level",
          "type": "uint8"
        },
        {
          "indexed": false,
          "internalType": "uint256",
          "name": "score",
          "type": "uint256"
        },
        {
          "indexed": false,
          "internalType": "string",
          "name": "cid",
          "type": "string"
        },
        {
          "indexed": false,
          "internalType": "uint8",
          "name": "version",
          "type": "uint8"
        }
      ],
      "name": "ReportSubmitted",
      "type": "event"
    },
    {
      "inputs": [],
      "name": "getLastTenReports",
      "outputs": [
        {
          "internalType": "uint256[]",
          "name": "",
          "type": "uint256[]"
        }
      ],
      "stateMutability": "view",
      "type": "function"
    },
    {
      "inputs": [
        {
          "internalType": "address",
          "name": "contractAddress",
          "type": "address"
        }
      ],
      "name": "getLatestReport",
      "outputs": [
        {
          "components": [
            {
              "internalType": "address",
              "name": "contractAudited",
              "type": "address"
            },
            {
              "internalType": "enum AuditRegistry.ThreatLevel",
              "name": "threatLevel",
              "type": "uint8"
            },
            {
              "internalType": "uint256",
              "name": "threatScore",
              "type": "uint256"
            },
            {
              "internalType": "string",
              "name": "ipfsCid",
              "type": "string"
            },
            {
              "internalType": "uint256",
              "name": "timestamp",
              "type": "uint256"
            },
            {
              "internalType": "uint8",
              "name": "auditVersion",
              "type": "uint8"
            }
          ],
          "internalType": "struct AuditRegistry.AuditReport",
          "name": "",
          "type": "tuple"
        }
      ],
      "stateMutability": "view",
      "type": "function"
    },
    {
      "inputs": [
        {
          "internalType": "address",
          "name": "auditedContract",
          "type": "address"
        }
      ],
      "name": "getReportsByContract",
      "outputs": [
        {
          "internalType": "uint256[]",
          "name": "",
          "type": "uint256[]"
        }
      ],
      "stateMutability": "view",
      "type": "function"
    },
    {
      "inputs": [
        {
          "internalType": "address",
          "name": "contractAddress",
          "type": "address"
        }
      ],
      "name": "isContractAudited",
      "outputs": [
        {
          "internalType": "bool",
          "name": "",
          "type": "bool"
        }
      ],
      "stateMutability": "view",
      "type": "function"
    },
    {
      "inputs": [],
      "name": "owner",
      "outputs": [
        {
          "internalType": "address",
          "name": "",
          "type": "address"
        }
      ],
      "stateMutability": "view",
      "type": "function"
    },
    {
      "inputs": [],
      "name": "renounceOwnership",
      "outputs": [],
      "stateMutability": "nonpayable",
      "type": "function"
    },
    {
      "inputs": [],
      "name": "reportCount",
      "outputs": [
        {
          "internalType": "uint256",
          "name": "",
          "type": "uint256"
        }
      ],
      "stateMutability": "view",
      "type": "function"
    },
    {
      "inputs": [
        {
          "internalType": "uint256",
          "name": "",
          "type": "uint256"
        }
      ],
      "name": "reports",
      "outputs": [
        {
          "internalType": "address",
          "name": "contractAudited",
          "type": "address"
        },
        {
          "internalType": "enum AuditRegistry.ThreatLevel",
          "name": "threatLevel",
          "type": "uint8"
        },
        {
          "internalType": "uint256",
          "name": "threatScore",
          "type": "uint256"
        },
        {
          "internalType": "string",
          "name": "ipfsCid",
          "type": "string"
        },
        {
          "internalType": "uint256",
          "name": "timestamp",
          "type": "uint256"
        },
        {
          "internalType": "uint8",
          "name": "auditVersion",
          "type": "uint8"
        }
      ],
      "stateMutability": "view",
      "type": "function"
    },
    {
      "inputs": [
        {
          "internalType": "address",
          "name": "",
          "type": "address"
        },
        {
          "internalType": "uint256",
          "name": "",
          "type": "uint256"
        }
      ],
      "name": "reportsByContract",
      "outputs": [
        {
          "internalType": "uint256",
          "name": "",
          "type": "uint256"
        }
      ],
      "stateMutability": "view",
      "type": "function"
    },
    {
      "inputs": [
        {
          "internalType": "address",
          "name": "_contractAudited",
          "type": "address"
        },
        {
          "internalType": "enum AuditRegistry.ThreatLevel",
          "name": "_level",
          "type": "uint8"
        },
        {
          "internalType": "uint256",
          "name": "_threatScore",
          "type": "uint256"
        },
        {
          "internalType": "string",
          "name": "_cid",
          "type": "string"
        },
        {
          "internalType": "uint8",
          "name": "_auditVersion",
          "type": "uint8"
        }
      ],
      "name": "submitReport",
      "outputs": [],
      "stateMutability": "nonpayable",
      "type": "function"
    },
    {
      "inputs": [
        {
          "internalType": "address",
          "name": "newOwner",
          "type": "address"
        }
      ],
      "name": "transferOwnership",
      "outputs": [],
      "stateMutability": "nonpayable",
      "type": "function"
    }
  ],
  "bytecode": "0x608060405234801561001057600080fd5b50604051611e0b380380611e0b833981810160405281019061003291906101e2565b80600073ffffffffffffffffffffffffffffffffffffffff168173ffffffffffffffffffffffffffffffffffffffff16036100a55760006040517f1e4fbdf700000000000000000000000000000000000000000000000000000000815260040161009c919061021e565b60405180910390fd5b6100b4816100bb60201b60201c565b5050610239565b60008060009054906101000a900473ffffffffffffffffffffffffffffffffffffffff169050816000806101000a81548173ffffffffffffffffffffffffffffffffffffffff021916908373ffffffffffffffffffffffffffffffffffffffff1602179055508173ffffffffffffffffffffffffffffffffffffffff168173ffffffffffffffffffffffffffffffffffffffff167f8be0079c531659141344cd1fd0a4f28419497f9722a3daafe3b4186f6b6457e060405160405180910390a35050565b600080fd5b600073ffffffffffffffffffffffffffffffffffffffff82169050919050565b60006101af82610184565b9050919050565b6101bf816101a4565b81146101ca57600080fd5b50565b6000815190506101dc816101b6565b92915050565b6000602082840312156101f8576101f761017f565b5b6000610206848285016101cd565b91505092915050565b610218816101a4565b82525050565b6000602082019050610233600083018461020f565b92915050565b611bc3806102486000396000f3fe608060405234801561001057600080fd5b50600436106100a95760003560e01c80639cd85e21116100715780639cd85e2114610142578063a0438b8d1461015e578063c942adf71461018e578063d1270b01146101c3578063e7c99bae146101f3578063f2fde38b14610223576100a9565b8063108d171a146100ae578063185c6f84146100de5780632ebda6de146100fc578063715018a61461011a5780638da5cb5b14610124575b600080fd5b6100c860048036038101906100c39190610e7b565b61023f565b6040516100d59190610ec3565b60405180910390f35b6100e661028d565b6040516100f39190610ef7565b60405180910390f35b610104610293565b6040516101119190610fd0565b60405180910390f35b6101226103b1565b005b61012c6103c5565b6040516101399190611001565b60405180910390f35b61015c600480360381019061015791906111ec565b6103ee565b005b61017860048036038101906101739190610e7b565b610715565b6040516101859190611420565b60405180910390f35b6101a860048036038101906101a39190611442565b61099a565b6040516101ba969594939291906114d7565b60405180910390f35b6101dd60048036038101906101d8919061153f565b610a98565b6040516101ea9190610ef7565b60405180910390f35b61020d60048036038101906102089190610e7b565b610ac9565b60405161021a9190610fd0565b60405180910390f35b61023d60048036038101906102389190610e7b565b610bcf565b005b600080600360008473ffffffffffffffffffffffffffffffffffffffff1673ffffffffffffffffffffffffffffffffffffffff16815260200190815260200160002080549050119050919050565b60015481565b606060006001549050600081036102f657600067ffffffffffffffff8111156102bf576102be611088565b5b6040519080825280602002602001820160405280156102ed5781602001602082028036833780820191505090505b509150506103ae565b6000600a82116103065781610309565b600a5b905060008167ffffffffffffffff81111561032757610326611088565b5b6040519080825280602002602001820160405280156103555781602001602082028036833780820191505090505b50905060005b828110156103a65780838561037091906115ae565b61037a91906115e2565b82828151811061038d5761038c611616565b5b602002602001018181525050808060010191505061035b565b508093505050505b90565b6103b9610c55565b6103c36000610cdc565b565b60008060009054906101000a900473ffffffffffffffffffffffffffffffffffffffff16905090565b6103f6610c55565b600073ffffffffffffffffffffffffffffffffffffffff168573ffffffffffffffffffffffffffffffffffffffff1603610465576040517f08c379a000000000000000000000000000000000000000000000000000000000815260040161045c90611691565b60405180910390fd5b60008251116104a9576040517f08c379a00000000000000000000000000000000000000000000000000000000081526004016104a0906116fd565b60405180910390fd5b6103e88311156104ee576040517f08c379a00000000000000000000000000000000000000000000000000000000081526004016104e590611769565b60405180910390fd5b6040518060c001604052808673ffffffffffffffffffffffffffffffffffffffff16815260200185600481111561052857610527611292565b5b81526020018481526020018381526020014281526020018260ff1681525060026000600154815260200190815260200160002060008201518160000160006101000a81548173ffffffffffffffffffffffffffffffffffffffff021916908373ffffffffffffffffffffffffffffffffffffffff16021790555060208201518160000160146101000a81548160ff021916908360048111156105cd576105cc611292565b5b02179055506040820151816001015560608201518160020190816105f19190611995565b506080820151816003015560a08201518160040160006101000a81548160ff021916908360ff160217905550905050600360008673ffffffffffffffffffffffffffffffffffffffff1673ffffffffffffffffffffffffffffffffffffffff16815260200190815260200160002060015490806001815401808255809150506001900390600052602060002001600090919091909150553373ffffffffffffffffffffffffffffffffffffffff168573ffffffffffffffffffffffffffffffffffffffff166001547fa49b48b5fa18119860fc0cf18a9bfc62ad032b7c1df394893db98624fe227004878787876040516106ee9493929190611a67565b60405180910390a46001600081548092919061070990611ab3565b91905055505050505050565b61071d610da8565b6000600360008473ffffffffffffffffffffffffffffffffffffffff1673ffffffffffffffffffffffffffffffffffffffff1681526020019081526020016000208054806020026020016040519081016040528092919081815260200182805480156107a857602002820191906000526020600020905b815481526020019060010190808311610794575b5050505050905060008151116107f3576040517f08c379a00000000000000000000000000000000000000000000000000000000081526004016107ea90611b6d565b60405180910390fd5b6000816001835161080491906115ae565b8151811061081557610814611616565b5b60200260200101519050600260008281526020019081526020016000206040518060c00160405290816000820160009054906101000a900473ffffffffffffffffffffffffffffffffffffffff1673ffffffffffffffffffffffffffffffffffffffff1673ffffffffffffffffffffffffffffffffffffffff1681526020016000820160149054906101000a900460ff1660048111156108b8576108b7611292565b5b60048111156108ca576108c9611292565b5b8152602001600182015481526020016002820180546108e8906117b8565b80601f0160208091040260200160405190810160405280929190818152602001828054610914906117b8565b80156109615780601f1061093657610100808354040283529160200191610961565b820191906000526020600020905b81548152906001019060200180831161094457829003601f168201915b50505050508152602001600382015481526020016004820160009054906101000a900460ff1660ff1660ff168152505092505050919050565b60026020528060005260406000206000915090508060000160009054906101000a900473ffffffffffffffffffffffffffffffffffffffff16908060000160149054906101000a900460ff16908060010154908060020180546109fc906117b8565b80601f0160208091040260200160405190810160405280929190818152602001828054610a28906117b8565b8015610a755780601f10610a4a57610100808354040283529160200191610a75565b820191906000526020600020905b815481529060010190602001808311610a5857829003601f168201915b5050505050908060030154908060040160009054906101000a900460ff16905086565b60036020528160005260406000208181548110610ab457600080fd5b90600052602060002001600091509150505481565b6060600073ffffffffffffffffffffffffffffffffffffffff168273ffffffffffffffffffffffffffffffffffffffff1603610b3a576040517f08c379a0000000000000000000000000000000000000000000000000000000008152600401610b3190611691565b60405180910390fd5b600360008373ffffffffffffffffffffffffffffffffffffffff1673ffffffffffffffffffffffffffffffffffffffff168152602001908152602001600020805480602002602001604051908101604052809291908181526020018280548015610bc357602002820191906000526020600020905b815481526020019060010190808311610baf575b50505050509050919050565b610bd7610c55565b600073ffffffffffffffffffffffffffffffffffffffff168173ffffffffffffffffffffffffffffffffffffffff1603610c495760006040517f1e4fbdf7000000000000000000000000000000000000000000000000000000008152600401610c409190611001565b60405180910390fd5b610c5281610cdc565b50565b610c5d610da0565b73ffffffffffffffffffffffffffffffffffffffff16610c7b6103c5565b73ffffffffffffffffffffffffffffffffffffffff1614610cda57610c9e610da0565b6040517f118cdaa7000000000000000000000000000000000000000000000000000000008152600401610cd19190611001565b60405180910390fd5b565b60008060009054906101000a900473ffffffffffffffffffffffffffffffffffffffff169050816000806101000a81548173ffffffffffffffffffffffffffffffffffffffff021916908373ffffffffffffffffffffffffffffffffffffffff1602179055508173ffffffffffffffffffffffffffffffffffffffff168173ffffffffffffffffffffffffffffffffffffffff167f8be0079c531659141344cd1fd0a4f28419497f9722a3daafe3b4186f6b6457e060405160405180910390a35050565b600033905090565b6040518060c00160405280600073ffffffffffffffffffffffffffffffffffffffff16815260200160006004811115610de457610de3611292565b5b8152602001600081526020016060815260200160008152602001600060ff1681525090565b6000604051905090565b600080fd5b600080fd5b600073ffffffffffffffffffffffffffffffffffffffff82169050919050565b6000610e4882610e1d565b9050919050565b610e5881610e3d565b8114610e6357600080fd5b50565b600081359050610e7581610e4f565b92915050565b600060208284031215610e9157610e90610e13565b5b6000610e9f84828501610e66565b91505092915050565b60008115159050919050565b610ebd81610ea8565b82525050565b6000602082019050610ed86000830184610eb4565b92915050565b6000819050919050565b610ef181610ede565b82525050565b6000602082019050610f0c6000830184610ee8565b92915050565b600081519050919050565b600082825260208201905092915050565b6000819050602082019050919050565b610f4781610ede565b82525050565b6000610f598383610f3e565b60208301905092915050565b6000602082019050919050565b6000610f7d82610f12565b610f878185610f1d565b9350610f9283610f2e565b8060005b83811015610fc3578151610faa8882610f4d565b9750610fb583610f65565b925050600181019050610f96565b5085935050505092915050565b60006020820190508181036000830152610fea8184610f72565b905092915050565b610ffb81610e3d565b82525050565b60006020820190506110166000830184610ff2565b92915050565b6005811061102957600080fd5b50565b60008135905061103b8161101c565b92915050565b61104a81610ede565b811461105557600080fd5b50565b60008135905061106781611041565b92915050565b600080fd5b600080fd5b6000601f19601f8301169050919050565b7f4e487b7100000000000000000000000000000000000000000000000000000000600052604160045260246000fd5b6110c082611077565b810181811067ffffffffffffffff821117156110df576110de611088565b5b80604052505050565b60006110f2610e09565b90506110fe82826110b7565b919050565b600067ffffffffffffffff82111561111e5761111d611088565b5b61112782611077565b9050602081019050919050565b82818337600083830152505050565b600061115661115184611103565b6110e8565b90508281526020810184848401111561117257611171611072565b5b61117d848285611134565b509392505050565b600082601f83011261119a5761119961106d565b5b81356111aa848260208601611143565b91505092915050565b600060ff82169050919050565b6111c9816111b3565b81146111d457600080fd5b50565b6000813590506111e6816111c0565b92915050565b600080600080600060a0868803121561120857611207610e13565b5b600061121688828901610e66565b95505060206112278882890161102c565b945050604061123888828901611058565b935050606086013567ffffffffffffffff81111561125957611258610e18565b5b61126588828901611185565b9250506080611276888289016111d7565b9150509295509295909350565b61128c81610e3d565b82525050565b7f4e487b7100000000000000000000000000000000000000000000000000000000600052602160045260246000fd5b600581106112d2576112d1611292565b5b50565b60008190506112e3826112c1565b919050565b60006112f3826112d5565b9050919050565b611303816112e8565b82525050565b600081519050919050565b600082825260208201905092915050565b60005b83811015611343578082015181840152602081019050611328565b60008484015250505050565b600061135a82611309565b6113648185611314565b9350611374818560208601611325565b61137d81611077565b840191505092915050565b611391816111b3565b82525050565b600060c0830160008301516113af6000860182611283565b5060208301516113c260208601826112fa565b5060408301516113d56040860182610f3e565b50606083015184820360608601526113ed828261134f565b91505060808301516114026080860182610f3e565b5060a083015161141560a0860182611388565b508091505092915050565b6000602082019050818103600083015261143a8184611397565b905092915050565b60006020828403121561145857611457610e13565b5b600061146684828501611058565b91505092915050565b611478816112e8565b82525050565b600082825260208201905092915050565b600061149a82611309565b6114a4818561147e565b93506114b4818560208601611325565b6114bd81611077565b840191505092915050565b6114d1816111b3565b82525050565b600060c0820190506114ec6000830189610ff2565b6114f9602083018861146f565b6115066040830187610ee8565b8181036060830152611518818661148f565b90506115276080830185610ee8565b61153460a08301846114c8565b979650505050505050565b6000806040838503121561155657611555610e13565b5b600061156485828601610e66565b925050602061157585828601611058565b9150509250929050565b7f4e487b7100000000000000000000000000000000000000000000000000000000600052601160045260246000fd5b60006115b982610ede565b91506115c483610ede565b92508282039050818111156115dc576115db61157f565b5b92915050565b60006115ed82610ede565b91506115f883610ede565b92508282019050808211156116105761160f61157f565b5b92915050565b7f4e487b7100000000000000000000000000000000000000000000000000000000600052603260045260246000fd5b7f496e76616c696420636f6e747261637420616464726573730000000000000000600082015250565b600061167b60188361147e565b915061168682611645565b602082019050919050565b600060208201905081810360008301526116aa8161166e565b9050919050565b7f49504653204349442063616e6e6f7420626520656d7074790000000000000000600082015250565b60006116e760188361147e565b91506116f2826116b1565b602082019050919050565b60006020820190508181036000830152611716816116da565b9050919050565b7f5468726561742073636f72652065786365656473206d6178696d756d00000000600082015250565b6000611753601c8361147e565b915061175e8261171d565b602082019050919050565b6000602082019050818103600083015261178281611746565b9050919050565b7f4e487b7100000000000000000000000000000000000000000000000000000000600052602260045260246000fd5b600060028204905060018216806117d057607f821691505b6020821081036117e3576117e2611789565b5b50919050565b60008190508160005260206000209050919050565b60006020601f8301049050919050565b600082821b905092915050565b60006008830261184b7fffffffffffffffffffffffffffffffffffffffffffffffffffffffffffffffff8261180e565b611855868361180e565b95508019841693508086168417925050509392505050565b6000819050919050565b600061189261188d61188884610ede565b61186d565b610ede565b9050919050565b6000819050919050565b6118ac83611877565b6118c06118b882611899565b84845461181b565b825550505050565b600090565b6118d56118c8565b6118e08184846118a3565b505050565b5b81811015611904576118f96000826118cd565b6001810190506118e6565b5050565b601f8211156119495761191a816117e9565b611923846117fe565b81016020851015611932578190505b61194661193e856117fe565b8301826118e5565b50505b505050565b600082821c905092915050565b600061196c6000198460080261194e565b1980831691505092915050565b6000611985838361195b565b9150826002028217905092915050565b61199e82611309565b67ffffffffffffffff8111156119b7576119b6611088565b5b6119c182546117b8565b6119cc828285611908565b600060209050601f8311600181146119ff57600084156119ed578287015190505b6119f78582611979565b865550611a5f565b601f198416611a0d866117e9565b60005b82811015611a3557848901518255600182019150602085019450602081019050611a10565b86831015611a525784890151611a4e601f89168261195b565b8355505b6001600288020188555050505b505050505050565b6000608082019050611a7c600083018761146f565b611a896020830186610ee8565b8181036040830152611a9b818561148f565b9050611aaa60608301846114c8565b95945050505050565b6000611abe82610ede565b91507fffffffffffffffffffffffffffffffffffffffffffffffffffffffffffffffff8203611af057611aef61157f565b5b600182019050919050565b7f4e6f206175646974207265706f72747320666f756e6420666f7220746869732060008201527f636f6e7472616374000000000000000000000000000000000000000000000000602082015250565b6000611b5760288361147e565b9150611b6282611afb565b604082019050919050565b60006020820190508181036000830152611b8681611b4a565b905091905056fea2646970667358221220c083b9d745134a3c301f2642caa24738c03758f317fd1e5bc76df409cd5f050664736f6c634300081c0033",
  "linkReferences": {},
  "deployedLinkReferences": {}
}